:100000000C94D8010C94F5010C94F5010C94F501B5
:100010000C94F5010C94F5010C94F5010C94F50188
:100020000C94F5010C94F5010C94F5010C94F50178
:100030000C94F5010C94F5010C9453020C94F50109
:100040000C940E020C94F5010C9421090C944309B4
:100050000C944D090C94F5010C94F5010C94F501E8
:100060000C94F5010C94F501000000000000002F35
:1000700000000007000700147F147F14242A7F2A41
:1000800012C4C81026463649552250000503000008
:10009000001C2241000041221C0014083E081408E4
:1000A000083E0808000050300010101010100060CA
:1000B00060000020100804023E5149453E00427F86
:1000C000400042615149462141454B311814127F8D
:1000D0001027454545393C4A494930017109050316
:1000E0003649494936064949291E0036360000007E
:1000F0005636000008142241001414141414004150
:100100002214080201510906324959513E7E11114B
:10011000117E7F494949363E414141227F4141227A
:100120001C7F494949417F090909013E4149497AF2
:100130007F0808087F00417F41002040413F017F48
:10014000081422417F404040407F020C027F7F0420
:1001500008107F3E4141413E7F090909063E415159
:10016000215E7F09192946464949493101017F012C
:10017000013F4040403F1F2040201F3F4038403F4C
:100180006314081463070870080761514945430068
:100190007F414100552A552A550041417F00040204
:1001A0000102044040404040000102040020545439
:1001B00054787F48444438384444442038444448C0
:1001C0007F3854545418087E0901020C5252523E92
:1001D0007F0804047800447D40002040443D007FB7
:1001E0001028440000417F40007C041804787C08FB
:1001F00004047838444444387C1414140808141453
:10020000187C7C080404084854545420043F44409B
:10021000203C4040207C1C2040201C3C4030403C86
:1002200044281028440C5050503C4464544C447FA3
:10023000494949307F494949367F01010101603E02
:10024000213F607F4949494167187F18672241492A
:1002500049367F1008047F7F1009047F7F0814222D
:1002600041403E01017E7F0204027F7F0808087F33
:100270003E4141413E7F0101017F7F090909063E60
:100280004141412201017F0101274848483F1E2189
:100290007F211E63140814633F20203F401F10106D
:1002A000107F7F407F407F3F203F207F017F44447D
:1002B000387F447C007F7F44444438224149493E92
:1002C0007F087F417F462919097F20545454783C88
:1002D0004A4A4B307C545458207C0404040460384F
:1002E000243C60385454541874087C0874284454CE
:1002F00054287C2010087C7C2112097C7C1010285A
:1003000044407804047C7C0810087C7C1010107C2D
:1003100038444444387C0404047C7C1414140838A5
:100320004444442804047C04040C5050503C1824D9
:100330007C241844281028443C20203C401C2020C9
:10034000207C7C407C407C3C203C207C047C4848D9
:10035000307C4848307C7C484848302844545438E5
:100360007C38444438483414147C7E4B4A4B42FF5A
:1003700081BD81818181818181818181FF3C3CFFBF
:1003800081BDBDBDBD81818181818181FF3C3CFFFB
:1003900081BDBDBDBDBDBDBDBD818181FF3C3CFFFB
:1003A00081BDBDBDBDBDBDBDBDBDBD81FF3C3C0072
:1003B00011241FBECFEFD8E0DEBFCDBF12E0A0E01A
:1003C000B1E0ECEAFCE102C005900D92A036B10765
:1003D000D9F715E0A0E6B2E001C01D92A232B10744
:1003E000E1F70E94A9060C94540E0C9400001092A0
:1003F000B60010920C0410920D0410920E0410928C
:100400000F041092100480E786BD14BC85E085BD02
:10041000EEE6F0E080818160808308951F920F9264
:100420000FB60F9211248F939F93AF93BF9380E7E2
:1004300086BD809100018823B1F482E3809300019E
:1004400080910C0490910D04A0910E04B0910F04C2
:100450000196A11DB11D80930C0490930D04A093EF
:100460000E04B0930F04809100018150809300012D
:1004700080911004882329F080911004815080938A
:10048000100480911104882329F080911104815077
:1004900080931104BF91AF919F918F910F900FBEE8
:1004A0000F901F9018951F920F920FB60F92112464
:1004B0000F900FBE0F901F901895EEE6F0E0808130
:1004C0008E7F808320910C0430910D0440910E04A6
:1004D00050910F04808181608083B901CA01089521
:1004E000EEE6F0E020812E7F208360930C04709371
:1004F0000D0480930E0490930F04808181608083AB
:10050000089581E008951092600281E892E090934E
:1005100063028093620285B1887F85B98BB18F7940
:100520008BB984B1887F84B98AB18F798AB90895EB
:100530009093630280936202089583B129B120767B
:100540008770282B20959091600290FF14C08091B5
:100550006102281781F491FD1AC0E0916202F091C6
:100560006302822F0995882391F080916002826056
:10057000809360020895222339F0209361029160F4
:100580009D7F9093600208959C7F909360020895F0
:10059000439A449898E087FF02C0429A01C042986B
:1005A000419A00000000000000004198915011F0B5
:1005B000880FF1CF449A08954398449898E087FFB4
:1005C00002C0429A01C04298419A00000000000017
:1005D00000004198915011F0880FF1CF449A08958E
:1005E0000F931F93CF93DF9395E0899FC001112450
:1005F000EC01C853D0408C010B59104008591F4FD3
:10060000FE0184910E94C8022196C017D107C1F74C
:1006100080E00E94C802DF91CF911F910F91089551
:100620001F93182F862F80640E94DC02812F806820
:100630000E94DC021F910895CF93DF93449A88B102
:10064000817F88B987B18E6187B981E20E94DC021F
:1006500088EC0E94DC0286E00E94DC0283E10E94BA
:10066000DC0280E20E94DC028CE00E94DC02C0E03E
:10067000D0E080E00E94C802219681E0C83FD80700
:10068000C1F780E060E00E941003DF91CF910895F0
:10069000CF93DF93EC0103C021960E94F002888182
:1006A0008823D1F7DF91CF9108950F931F93082FDF
:1006B00080E0602F0E94100310E080E00E94C802DA
:1006C0001F5F1435D1F780E0602F0E9410031F9147
:1006D0000F910895CF93DF9380E060E00E941003B4
:1006E000C0E0D0E080E00E94C802219681E0C83FCF
:1006F000D807C1F780E060E00E941003DF91CF913E
:100700000895DF92EF92FF920F931F93DF93CF93A1
:1007100000D000D0CDB7DEB740E030E020E011C01F
:1007200053E0883E950720F0885E93402F5F09C014
:100730008436910520F0845690403F5F02C00A97AE
:100740004F5F8A30910560F74B833A8329838C830E
:10075000222321F000E010E0DD2412C0332329F031
:1007600001E010E0DD24D3940BC0442329F403E01E
:1007700010E093E0D92E04C002E010E082E0D82E11
:100780007E010894E11CF11CE00EF11EF70181913D
:100790007F01805D0E94F0020F5F1F4F0430110542
:1007A000A9F704C080E20E94F002DA94DD20D1F7BC
:1007B0000F900F900F900F90CF91DF911F910F919D
:1007C000FF90EF90DF9008950F931F93CF93DF93E7
:1007D000042F0E9410030295007F10E0E801C15928
:1007E000DC4F005F1F4F01591C4FFE0184910E9496
:1007F000C8022196C017D107C1F7DF91CF911F9191
:100800000F9108950F931F93CF93DF93382FEB0130
:100810002881822F6AE00E940F0B092F822F0E94ED
:100820000F0B182F313039F480E064E00E94100380
:1008300081E091E006C080E065E00E94100387E05F
:1008400091E00E944803812F805D0E94F002802F7A
:10085000805D0E94F0028EE20E94F0028981805D3C
:100860000E94F00283E40E94F002DF91CF911F9179
:100870000F9108951F93182F82958F708A3010F072
:10088000895C01C0805D0E94F002812F8F708A30E8
:1008900010F0895C01C0805D0E94F0021F910895F4
:1008A0001F93809166028130A1F0813028F0823060
:1008B00061F1833071F52FC088E092E00E94220838
:1008C000182F80E192E00E942208180FF1F481E0D5
:1008D0001DC088E092E065E175E00E94360888233B
:1008E00029F482E065E175E00E94020480E192E073
:1008F00062E174E00E943608882329F481E062E115
:1009000074E00E94020482E001C08AE080936602E3
:1009100002C0109266021F910895EF92FF920F930A
:100920001F93DF93CF93CDB7DEB728970FB6F89418
:10093000DEBF0FBECDBFCE0101960E94D007882337
:10094000F9F460E00E9410038DE091E00E944803FA
:1009500089810E943A0480E061E00E9410038E01C8
:100960000E5F1F4F89E0E82EF12CEC0EFD1EF80102
:1009700081918F010E943A040E151F05C1F708C02E
:1009800080E060E00E94100382E191E00E94480351
:1009900028960FB6F894DEBF0FBECDBFCF91DF9182
:1009A0001F910F91FF90EF900895209167024DB72E
:1009B0005EB7405150400FB6F8945EBF0FBE4DBFBA
:1009C000EDB7FEB73196ADB7BEB712969C938E9336
:1009D00011978DE191E09383828380911204848347
:1009E0001582809113048683178280911505808774
:1009F00011868091160582871386822F90E0817080
:100A0000907095878487269530E021703070378705
:100A100026870E947C0B4DB75EB7405F5F4F0FB6D5
:100A2000F8945EBF0FBE4DBF089582FF12C00E94B2
:100A30006A038091640266E571E040E355E70E9435
:100A4000A20A9093180580931705009709F0D9C062
:100A5000DAC086FF39C0809167028F5F809367029A
:100A6000843010F0109267026091670260956370A5
:100A700088E192E00E94C1080E946A0380E061E080
:100A80000E94100387E591E00E94480380E062E045
:100A90000E94100389E591E00E944803809167025B
:100AA0008170805D0E94F00280E063E00E9410038C
:100AB0008EE591E00E9448038091670286958170DF
:100AC000805D0E94F0029FC081FF16C081E060E05F
:100AD0000E94100380916402909165028A30910512
:100AE00018F080E090E001C0019690936502809339
:100AF00064020E94810387C085FF63C00E9457097A
:100B00008FEF9FEF28EB30E0F9013197F1F7019774
:100B1000D9F783E691E065E174E040E553EC0E948B
:100B2000910A882309F06FC084EF91E028EB30E050
:100B3000F9013197F1F70197D9F787E691E065E17F
:100B400074E040E25EE40E94910A84EF91E028EBB9
:100B500030E0F9013197F1F70197D9F78DE691E08F
:100B600065E174E040E25EE40E94910A84EF91E066
:100B700028EB30E0F9013197F1F70197D9F788E7D1
:100B800091E065E174E040E25EE40E94910A84EF46
:100B900091E028EB30E0F9013197F1F70197D9F7AF
:100BA00087E891E065E174E040E355E70E94910A2F
:100BB0000E946A0380E061E00E9410038BE991E0EB
:100BC00020C080FF20C085E194E00E94D5048AEA1D
:100BD00091E065E174E00E94430A809314040E944E
:100BE0006A0380911404882331F461E00E941003A9
:100BF00088EB91E006C080E061E00E94100381EC88
:100C000091E00E94480381E008950F931F93CF93D2
:100C1000DF93EC010E946A03CE0168EC71E00E9450
:100C20003B0BFC010097B9F00285102F105380E0B8
:100C300063E00E94100382ED91E00E944803802F40
:100C40000E94F002109367021095137088E192E001
:100C5000612F0E94C108CE016DED71E00E943B0B37
:100C6000009709F185E194E00E94D5048AEA91E0B9
:100C700065E174E00E94430A80931404882399F488
:100C800062E00E94100384EE91E00E94480380E03D
:100C900090E90197F1F787E891E065E174E040E2BF
:100CA0005EE40E94910ADF91CF911F910F91089508
:100CB000CF93DF9383EC80937A0080917A0086FD56
:100CC000FCCF809178009091790020E030E040E006
:100CD00080917A00806480937A0080917A0086FD0A
:100CE000FCCF8091780090917900280F391F4F5FD9
:100CF000443071F710927A00E901D695C79593E0D8
:100D0000CC0FDD1F9A95E1F78FE0C531D80720F0B1
:100D100083E460E043E017C08EE0C537D80720F0D9
:100D200083E460E042E00FC08EE0C131D80720F0DC
:100D300083E460E041E007C08DE0CC3FD80728F4B1
:100D400083E460E040E00E94E403CE01DF91CF91B4
:100D500008955F926F927F928F929F92AF92BF920F
:100D6000CF92DF92EF92FF920F931F93DF93CF9377
:100D7000CDB7DEB7C054D0400FB6F894DEBF0FBE7B
:100D8000CDBF389A80E880BF87EC80937C000E94BA
:100D900083020E94F7010E941C030E94E5080E9442
:100DA000790785E195E00E949802789480E061E0FF
:100DB0000E94100383EF91E00E94480310E000E0DE
:100DC000DD2472E3572E62E0C62E7E010894E11CFA
:100DD000F11C612C50E9752E48EB842E912C33E3E5
:100DE000A32E37E0B32E80911004882359F450923B
:100DF00010040E945004D3948AE08D1518F40E94C8
:100E00005806DD2480911104882369F4C0921104EE
:100E10000E949D020F5F0A3118F0409A00E003C063
:100E2000023009F440980E940109882309F45DC04A
:100E30000E9405098A3009F04EC0F701E10FF11D4B
:100E40001082C70161E072E00E943B0B009709F439
:100E50004BC00E946A03C7010E94480381E066E517
:100E600071E040E355E70E94A20A90931805809331
:100E70001705009769F481E066E571E040E355E706
:100E80000E94A20A9093180580931705009741F0DD
:100E90000E94480380911705909118050E9405064D
:100EA000C3010197F1F787E891E065E174E040E361
:100EB00055E70E94910A88E592E0F4013197F1F735
:100EC0000197D9F787E891E065E174E048E853E1DC
:100ED0000E94910A09C08D3029F0F701E10FF11D40
:100EE00080831F5F103408F010E0C5010197F1F70F
:100EF0007ACF8BB180788BB957980895F894579A28
:100F000084E793E00197F1F757988CEA8A95F1F717
:100F100089B1E3EFF2E03197F1F74F9902C082E037
:100F200003C0881F8827881F78940895F89420E0CC
:100F300080E05EE046E137E8579A952F9A95F1F701
:100F40005798942F9A95F1F786954F998068932F2B
:100F50009A95F1F72F5F283079F778940895F894EF
:100F600041E020E030E0F3E9EEE078E16DE9542F74
:100F70005823579A11F09E2F01C09F2F9A95F1F791
:100F80005798552311F0962F01C0972F9A95F1F796
:100F9000440F2F5F3F4F2830310549F7789408956B
:100FA000FF920F931F93CF93DF938C010E947E07D4
:100FB000F82E882379F483E30E94AF07C0E0D0E0E5
:100FC0000E949607F801EC0FFD1F80832196C83020
:100FD000D105B1F78F2DDF91CF911F910F91FF9028
:100FE00008959091190530E048E180FF03C090FD1D
:100FF0000EC002C090FF0BC09427969590683F5F8B
:10100000383011F08695F1CF909319050895969593
:10101000F6CF0F931F93CF93DF938C0185E50E944A
:10102000AF07C0E0D0E0F801EC0FFD1F80810E9407
:10103000AF072196C830D105B1F7DF91CF911F914D
:101040000F9108951F93CF93DF93EC010E947E07C9
:10105000182F882331F4CE010E94090884E40E94ED
:10106000AF07812FDF91CF911F910895AF92BF926B
:10107000CF92DF92EF92FF920F931F93CF93DF9364
:10108000EC015B010E947E07C82E882309F042C054
:10109000CE010E9409088EEB0E94AF07109219053D
:1010A0000E949607082F0E949607D82E182FE02E30
:1010B000802F0E94F1078D2D0E94F10754E01695B4
:1010C00007955A95E1F70F77F5010083FFE0EF22CE
:1010D000FF24C701880F991F33E0EE0CFF1C3A95DF
:1010E000E1F78E0D9F1D24E0959587952A95E1F7F0
:1010F000F501818300E00E9496070E94F1070F5FCF
:101100000630C9F70E94960790911905891711F0CA
:1011100083E0C82E8C2DDF91CF911F910F91FF900E
:10112000EF90DF90CF90BF90AF9008950F931F93F3
:10113000CF93DF93EC018B010E947E078823D9F4C3
:10114000CE010E94090885EF0E94AF070E94960712
:10115000282F40E050E0882311F441E050E0822F36
:1011600082958F7090E04817590729F42F70F80185
:10117000208380E001C081E0DF91CF911F910F912A
:1011800008951F93CF93DF93EC01162F0E947E07E3
:101190008823B1F4CE010E9409088AE50E94AF07B6
:1011A0001C6F812F0E94AF07812F80950E94AF078F
:1011B0000E949607182F0E94960780E01A3A09F0BD
:1011C00081E0DF91CF911F9108955A98529A109221
:1011D000C5008FE28093C40088E18093C10086E05F
:1011E0008093C2001092090480910904809308043E
:1011F0000895982F8091C00085FFFCCF9093C60082
:1012000008958091C000807808958091C600089567
:101210009091080480910904981719F420E030E0B7
:101220000EC0E0910904EF5FEF77E0930904F0E06E
:10123000E857FC4F8081282F30E020503F4FC901F4
:1012400008951F920F920FB60F9211248F939F93C0
:10125000EF93FF939091C600E0910804EF5FEF7762
:1012600080910904E81731F0E0930804F0E0E857B2
:10127000FC4F9083FF91EF919F918F910F900FBE44
:101280000F901F9018951F920F920FB60F92112476
:101290000F900FBE0F901F9018951F920F920FB6D0
:1012A0000F9211240F900FBE0F901F9018955A9A0D
:1012B00080E197E228EB30E0F9013197F1F70197EF
:1012C000D9F75A9808959091C6008091C00085FF83
:1012D000FCCF9093C6000895FC0107C08091C00028
:1012E00085FFFCCF31969093C60090819923B1F78A
:1012F0000895FC0107C08091C00085FFFCCF3196A6
:101300009093C60090819923B1F70895AC0120E035
:1013100030E095EF13C08091C00087FF0AC0809134
:10132000C6008A3031F08D3021F08E3311F480E028
:1013300008952F5F3F4F892F8A95F1F724173507BE
:1013400050F382E00895CF93DF93EC01442359F0EA
:10135000FC0101900020E9F731979E2F9C1B20E0B3
:1013600030E045EF25C080E091E0FE019C01119244
:1013700021503040E1F790E0F2CF8091C00087FF2C
:1013800012C08091C6009F3F11F483E015C0FE019A
:10139000E90FF11D80839F5F8A3029F480E092304D
:1013A00059F481E009C02F5F3F4F842F8A95F1F7F0
:1013B0002617370710F382E0DF91CF910895AF929F
:1013C000BF92CF92DF92FF920F931F93CF93DF9341
:1013D0008C015B0140E00E94A309F82E82E0F81620
:1013E00009F446C0C801B50140E00E94A309F82EE7
:1013F000E1E08E17B9F336C0E80109900020E9F763
:101400002197C01BD10B26976801CC0EDD1E2696B6
:10141000C60160E272E00E942B0B009711F4F60106
:1014200008C087E292E0B8010E942B0B97FF03C02F
:10143000F80110821DC08AE292E0B8010E942B0BD5
:1014400097FD14C02997C8018C0F9D1F60E372E0BF
:101450000E942B0B009751F0C801B50141E00E949A
:10146000A309F82EF1E0FF1538F602C084E0F82E4B
:101470008F2DDF91CF911F910F91FF90DF90CF9033
:10148000BF90AF900895EF92FF920F931F93F62EA7
:10149000E72E00D000D000D0EDB7FEB7319608E6B9
:1014A00012E0ADB7BEB712961C930E9311972AE3C4
:1014B00032E033832283958384830E947C0B8DB733
:1014C0009EB706960FB6F8949EBF0FBE8DBFC8019B
:1014D0000E94790980E29EE40E9486098823E1F453
:1014E0008F2D9E2D9C01F90107C08091C00085FFC2
:1014F000FCCF31969093C60090819923B1F78091EB
:10150000C00085FFFCCF8AE18093C60088E692E0A8
:1015100060E573EC0E94DF091F910F91FF90EF903F
:101520000895EF92FF920F931F938B017A010E940F
:101530007909C801B7010E94DF091F910F91FF903F
:10154000EF900895CF92DF92EF92FF920F931F9347
:10155000CF93DF936B017A0108E613E090E2D801A4
:101560001D929A95E9F700D000D000D0EDB7FEB7F4
:101570003196ADB7BEB712961C930E93119728E41F
:1015800032E033832283848315820E947C0BEDB783
:10159000FEB736960FB6F894FEBF0FBEEDBFC8017A
:1015A00068E672E0A7010E94910A882361F586E54A
:1015B00092E068E672E00E942B0B97FF24C08AE657
:1015C00092E06AE070E00E94200BFC01EC012196A1
:1015D000108288E692E06DE572E00E941B0B80E0CD
:1015E00090E06DE572E00E941B0B80E090E06DE5FD
:1015F00072E00E941B0BBC01C114D10431F0C60182
:101600000E94340B02C0C0E0D0E0CE01DF91CF9148
:101610001F910F91FF90EF90DF90CF900895991B4D
:1016200079E004C0991F961708F0961B881F7A95D9
:10163000C9F7809508954AE054E00E94550B08953B
:10164000FC018191861721F08823D9F79927089505
:101650003197CF010895FB01DC018D910190801934
:101660000110D9F3990B0895FB01DC0101900D9253
:101670000020E1F70895FB0151915523A9F0BF0126
:10168000DC014D9145174111E1F759F4CD0101906D
:10169000002049F04D9140154111C9F3FB01411162
:1016A000EFCF81E090E001970895FA01A191B08118
:1016B000009719F41097E1F0CD01DC01CD010D90F8
:1016C000002011F4C00113C0FB012191222319F065
:1016D0002015D9F7F3CFFB012191201519F41E92A3
:1016E000119606C02223C1F70D900020A1F7D0016A
:1016F000FA01A193B0830895AEE0B0E0E2E8FBE028
:101700000C942B0E0D891E8986E08C831A83098325
:101710008FEF9FE79E838D839E01275E3F4FCE0113
:1017200001966F89788DA9010E94A00B2F813885C1
:10173000020F131FF80110822E96E4E00C94470E5E
:10174000ABE0B0E0E6EAFBE00C941D0E3C012B019F
:101750005A01FC0117821682838181FD03C06FEF5D
:101760007FEFC6C19AE0892E1E010894211C311C0E
:10177000F3012381F20123FD859123FF81912F0144
:10178000882309F4B2C1853239F423FD859123FF02
:1017900081912F01853229F490E0B3010E94930DCD
:1017A000E7CF982FFF24EE249924FFE1FF15D0F016
:1017B0009B3269F09C3228F4903259F0933291F4C4
:1017C0000EC09D3249F0903369F441E024C052E0EC
:1017D000F52A84E0F82A28C098E0F92A25C0E0E13B
:1017E000FE2A22C0F7FC29C0892F80538A3070F46A
:1017F000F6FE05C0989C902C1124980E15C0E89C0C
:10180000E02C1124E80EF0E2FF2A0EC09E3229F4EB
:10181000F6FC6BC140E4F42A07C09C3619F450E88A
:10182000F52A02C0983649F4F20123FD959123FF71
:1018300091912F01992309F0B8CF892F85548330D6
:1018400018F08052833038F444E050E0A40EB51E06
:101850005FE359830FC0933631F0933779F09335B6
:1018600009F056C020C0F5018081898342E050E034
:10187000A40EB51E610101E010E012C0F501C080A8
:10188000D180F6FC03C06FEF7FEF02C0692D70E0DE
:1018900042E050E0A40EB51EC6010E94880D8C01E6
:1018A0005FE7F52214C0F501C080D180F6FC03C0CB
:1018B0006FEF7FEF02C0692D70E042E050E0A40EB0
:1018C000B51EC6010E947D0D8C0150E8F52AF3FE7D
:1018D00007C01AC080E290E0B3010E94930DEA9421
:1018E0008E2D90E008171907A8F30EC0F601F7FC3B
:1018F0008591F7FE81916F0190E0B3010E94930DF5
:10190000E110EA94015010400115110579F7EAC081
:10191000943611F0993669F5F7FE08C0F50120817B
:1019200031814281538184E090E00AC0F5018081D9
:1019300091819C01442737FD4095542F82E090E02F
:10194000A80EB91E9FE6F92257FF09C05095409591
:10195000309521953F4F4F4F5F4FE0E8FE2ACA0177
:10196000B901A1012AE030E00E94BF0DD82ED218A3
:1019700040C0953729F41F2D1F7E2AE030E01DC09E
:101980001F2D197F9F3661F0903720F4983509F0AC
:10199000ACC00FC0903739F0983709F0A6C004C02A
:1019A00028E030E00AC0106114FD146020E130E04E
:1019B00004C014FD166020E132E017FF08C0F501F5
:1019C000608171818281938144E050E008C0F5011B
:1019D00080819181BC0180E090E042E050E0A40E63
:1019E000B51EA1010E94BF0DD82ED2188FE7F82E88
:1019F000F122F6FE0BC05EEFF522D91438F4F4FEA6
:101A000007C0F2FC05C08FEEF82202C01D2D01C0F8
:101A1000192DF4FE0DC0FE01ED0DF11D8081803306
:101A200019F499EEF92208C01F5FF2FE05C003C049
:101A30008F2D867809F01F5F0F2DF3FC14C0F0FE88
:101A40000FC01E1510F09D2C0BC09D2C9E0C911AE2
:101A50001E2D06C080E290E0B3010E94930D1F5F2F
:101A60001E15C0F304C01E1510F4E11A01C0EE24C7
:101A700004FF0FC080E390E0B3010E94930D02FFCA
:101A80001DC001FD03C088E790E00EC088E590E02E
:101A90000BC0802F867891F001FF02C08BE201C05D
:101AA00080E2F7FC8DE290E0B3010E94930D06C046
:101AB00080E390E0B3010E94930D9A94D914C0F38F
:101AC000DA94F101ED0DF11D808190E0B3010E94E7
:101AD000930DDD20A9F706C080E290E0B3010E94DB
:101AE000930DEA94EE20C1F743CEF301668177812E
:101AF000CB012B96E2E10C94390EFC01059061506C
:101B000070400110D8F7809590958E0F9F1F089513
:101B1000FC016150704001900110D8F780959095BC
:101B20008E0F9F1F08950F931F93CF93DF938C0108
:101B3000EB018B8181FF1BC082FF0DC02E813F8195
:101B40008C819D812817390764F4E881F98101931C
:101B5000F983E88306C0E885F985802F0995892BEC
:101B600031F48E819F8101969F838E8302C00FEF97
:101B70001FEFC801DF91CF911F910F910895FA01D6
:101B8000AA27283051F1203181F1E8946F936E7FBC
:101B90006E5F7F4F8F4F9F4FAF4FB1E03ED0B4E0AD
:101BA0003CD0670F781F891F9A1FA11D680F791FEE
:101BB0008A1F911DA11D6A0F711D811D911DA11DFF
:101BC00020D009F468943F912AE0269F112430190F
:101BD000305D3193DEF6CF010895462F4770405DAA
:101BE0004193B3E00FD0C9F7F6CF462F4F70405D59
:101BF0004A3318F0495D31FD4052419302D0A9F7B4
:101C0000EACFB4E0A6959795879577956795BA95AD
:101C1000C9F700976105710508959B01AC010A2E73
:101C200006945795479537952795BA95C9F7620F4A
:101C3000731F841F951FA01D08952F923F924F92EE
:101C40005F926F927F928F929F92AF92BF92CF924C
:101C5000DF92EF92FF920F931F93CF93DF93CDB755
:101C6000DEB7CA1BDB0B0FB6F894DEBF0FBECDBFCD
:101C700009942A88398848885F846E847D848C849E
:101C80009B84AA84B984C884DF80EE80FD800C81A7
:101C90001B81AA81B981CE0FD11D0FB6F894DEBF8A
:0C1CA0000FBECDBFED010895F894FFCFFA
:101CAC00327431203D20007432203D200069643AAA
:101CBC002000726F6D206572726F72210054657313
:101CCC007420626F6172642072657620312E310A45
:101CDC0074313D25642E256420430A74323D2564FD
:101CEC002E25642043200A5357313D25642C205364
:101CFC0057323D2564000020005357313A005357AA
:101D0C00323A0041540D00415456310D0041542BD0
:101D1C00434D47463D310D0041542B435343533DF6
:101D2C002247534D220D0041542B434D4744413D16
:101D3C002244454C20414C4C220D0053696D3930E6
:101D4C00302069732072756E2E002B333830393683
:101D5C00313135303536360073656E64206F6B214A
:101D6C00006572726F7221007377697463685F73B8
:101D7C0074005377697463685F73743D00676574AE
:101D8C005F73740053656E64207374617465206FA7
:101D9C006B210047534D5F53494D393030203A2960
:101DAC00002B434D54493A0028FFF9994E040091F9
:101DBC0028FF21A64C04006C3AA1740E000000937D
:101DCC000D0A4F4B0D0A004F4B004552524F52001B
:101DDC000D0A4552524F520D0A0041542B434D47A8
:101DEC00533D222573220D0041542B434D47523D48
:101DFC0025642C300D002B434D47523A0022000035
:00000001FF
